:100000003AC05DC153C052C051C050C04FC04EC075
:100010004DC04CC04BC04AC049C048C047C046C094
:1000200045C044C043C00902120001010080140908
:10003000040000000000000012011001FF00000891
:10004000C016DC0500010102000116034C0045004A
:10005000440043006F006E00740072006F006C007B
:1000600012036F0062006400650076002E006100DC
:1000700074000403090411241FBECFE5D4E0DEBFE1
:10008000CDBF10E0A0E6B0E0E8E8F5E002C00590E2
:100090000D92A236B107D9F710E0A2E6B0E001C098
:1000A0001D92A139B107E1F751D26CC2A9CFCF930C
:1000B000DF9380917700835087FD84C09091740016
:1000C000209173002D3209F07BC0883009F078C090
:1000D000CCE0D0E0C91BD109C558DF4F83EC809339
:1000E00067008AE5809361001092620088818076C3
:1000F00019F0CE01F8D15BC08A811092700099810D
:10010000911106C01092710020E730E082E04BC0F0
:10011000953019F48093780038C0963081F59B8132
:10012000913019F488E390E004C0923041F486E203
:1001300090E0909376008093750082E11CC093302C
:10014000C9F4811108C082E790E090937600809313
:10015000750084E010C0813019F480E690E0E9CFAA
:10016000823041F48AE490E09093760080937500A9
:1001700086E101C080E090E49093620018C098305E
:1001800079F0993031F480937A0020E730E080E014
:100190000AC081E09A3009F080E020E730E003C037
:1001A0002AE730E081E030937600209375009F814C
:1001B000911104C09E81981708F4892F80936000E4
:1001C000109277008091610084FF4CC080916000A4
:1001D0008F3F09F447C0C82F893008F0C8E08C1B56
:1001E000809360008091670098E88927809367007A
:1001F000CC2361F18091750090917600209162008E
:1002000026FF12C0A8E6B0E027E630E02095309542
:10021000280F391F4C2F4A0FF901EA0FFB1FE491F9
:10022000ED934A13F9CF09C0E8E6F0E0DC012C2F8A
:100230002E0F3D9131932E13FCCF01962FEF2C0FF3
:10024000820F911D90937600809375006C2F88E645
:1002500090E031D0CC5FCC3019F08FEF809360000C
:10026000C093610084E190B3947131F48150D9F767
:100270001092780010927200DF91CF91089585B7A7
:10028000826085BF8BB780648BBF0895A82FB92F7C
:1002900080E090E041E050EA609530E009C02D91A7
:1002A00082279795879510F084279527305EC8F3AD
:1002B0006F5FA8F30895EADF8D939D930895CF9320
:1002C000CFB7CF93DF93C395849BE9F7849B0BC093
:1002D000849B09C0849B07C0849B05C0849B03C08A
:1002E000849B01C089C06F93C0917400DD27C558FD
:1002F000DF4F2F9365E5849B03C02F916F91E6CF6D
:100300000F931F934F9320E040E15F9300B304717C
:1003100004FB27F93F9350E03BE039C0147140647F
:100320002F77012F5F5F1EC0406810B314712F77C5
:1003300052501FC0406400B32F770471D1F15F5F4A
:1003400000C023C0406210B32F77147191F15F5F3A
:1003500000C025C004711027515012F45D5F0000E9
:10036000115027952C3F10B3C8F614710127015086
:1003700027952C3FC8F64227499300B304711027F4
:100380004F73115027952C3FA8F64695469510B30C
:10039000147179F00127015027952C3F98F66B5A7C
:1003A00060F3315000B3B0F600C010E41ABF00276C
:1003B00017C03B503195C31BD04010E41ABF0881D1
:1003C000033CF9F00B34E9F0209172001981110F10
:1003D0001213EDCF093651F10D3211F0013E39F70C
:1003E000009379003F915F914F911F910F912F9151
:1003F0006F91CAB7C6FD67CFDF91CF91CFBFCF91C5
:10040000189520917900222369F310917700112328
:1004100039F534303AF1309377002093730010911E
:1004200074003BE0311B309374001CC000917700D6
:100430000130B4F40AE53091610034FD14C000933A
:100440006100C7E6D0E013C0052710E000C000003F
:1004500002BB1AC0052710E0221F1DC010E021C0FA
:100460004AE502C032ED432FC4E1D0E032E011B3DF
:100470001461949A02B311BB54E120E865E320FFB4
:10048000052702BB279517951C3FF0F66695B8F730
:10049000B1F720FF052702BB279517951C3FD0F623
:1004A0002795179517FF052700001C3F02BBB0F6E4
:1004B00029913A9519F70B7E10917800110FC651CA
:1004C000D04002BB11F01093720010E41ABF00611B
:1004D00011B31B7E402F4B7E54E05A95F1F702BBBF
:1004E00011BB42BB7FCFFC018181811114C082818D
:1004F000809363008381809364008481809365008E
:1005000085818093660083E690E0909376008093E7
:10051000750084E00895813049F49281892F8170BB
:1005200090FF02C0C09A10C0C0980895823061F454
:1005300088B381708093630083E690E090937600A7
:100540008093750081E0089580E008952EE088E1B1
:1005500090E00FB6F894A89581BD0FBE21BD8FDE47
:100560008C9A80E0815041F0A895EFE9FFE0319747
:10057000F1F700C00000F6CF8C98B89A7894A8954F
:0805800096DDFDCFF894FFCFDA
:02058800FF5A18
:00000001FF
